:1000000000000000000000000000000000000000F0
:1000100000000000000000000000000000000000E0
:1000200000000000000000000000000000000000D0
:1000300000000000000000000000000000000000C0
:1000400000000000000000000000000000000000B0
:1000500000000000000000000000000000000000A0
:100060000000000000000000000000000000000090
:100070000000000000000000000000000000000080
:100080000000000000000000000000000000000070
:100090000000000000000000000000000000000060
:1000A0000000000000000000000000000000000050
:1000B0000000000000000000000000000000000040
:1000C0000000000000000000000000000000000030
:1000D0000000000000000000000000000000000020
:1000E0000000000000000000000000000000000010
:1000F0000000000000000000000000000000000000
:100100000FEF10E02FEF04B929D00CD00BD00AD09C
:1001100009D008D007D006D00C94800005B9089506
:1001200015B908953FEF4FEF5AE0320FF1F7420F44
:100130000000D9F7520F0000C1F70895EFDFF2DF9A
:10014000EFDFF0DF0895EADFEDDFECDFEBDFE8DF84
:10015000E9DF0895E7DFE6DFE5DF089504D007D0A3
:100160000CD00ED00895EADFEEDFF4DF0895E6DF6D
:10017000EADFE4DFE3DFEEDF0895E0DFEBDF0895A1
:0C018000E2DFDCDFDBDFDFDFE5DF08951E
:00000001FF
